{
	"contracts/Controller.sol": {
		"Controller": {
			"abi": [
				{
					"inputs": [
						{
							"internalType": "address",
							"name": "_compliance",
							"type": "address"
						}
					],
					"stateMutability": "nonpayable",
					"type": "constructor"
				},
				{
					"inputs": [],
					"name": "admin",
					"outputs": [
						{
							"internalType": "address",
							"name": "",
							"type": "address"
						}
					],
					"stateMutability": "view",
					"type": "function"
				},
				{
					"inputs": [
						{
							"internalType": "address",
							"name": "from",
							"type": "address"
						},
						{
							"internalType": "address",
							"name": "to",
							"type": "address"
						}
					],
					"name": "checkCompliance",
					"outputs": [
						{
							"internalType": "bool",
							"name": "",
							"type": "bool"
						}
					],
					"stateMutability": "view",
					"type": "function"
				}
			],
			"devdoc": {
				"kind": "dev",
				"methods": {},
				"version": 1
			},
			"evm": {
				"assembly": "    /* \"contracts/Controller.sol\":91:553  contract Controller {... */\n  mstore(0x40, 0x80)\n    /* \"contracts/Controller.sol\":287:404  constructor(address _compliance) {... */\n  callvalue\n  dup1\n  iszero\n  tag_1\n  jumpi\n  0x00\n  dup1\n  revert\ntag_1:\n  pop\n  mload(0x40)\n  sub(codesize, bytecodeSize)\n  dup1\n  bytecodeSize\n  dup4\n  codecopy\n  dup2\n  dup2\n  add\n  0x40\n  mstore\n  dup2\n  add\n  swap1\n  tag_2\n  swap2\n  swap1\n  tag_3\n  jump\t// in\ntag_2:\n    /* \"contracts/Controller.sol\":355:366  _compliance */\n  dup1\n    /* \"contracts/Controller.sol\":331:341  compliance */\n  0x00\n  dup1\n    /* \"contracts/Controller.sol\":331:367  compliance = Compliance(_compliance) */\n  0x0100\n  exp\n  dup2\n  sload\n  dup2\n  0xffffffffffffffffffffffffffffffffffffffff\n  mul\n  not\n  and\n  swap1\n  dup4\n  0xffffffffffffffffffffffffffffffffffffffff\n  and\n  mul\n  or\n  swap1\n  sstore\n  pop\n    /* \"contracts/Controller.sol\":386:396  msg.sender */\n  caller\n    /* \"contracts/Controller.sol\":378:383  admin */\n  0x01\n  0x00\n    /* \"contracts/Controller.sol\":378:396  admin = msg.sender */\n  0x0100\n  exp\n  dup2\n  sload\n  dup2\n  0xffffffffffffffffffffffffffffffffffffffff\n  mul\n  not\n  and\n  swap1\n  dup4\n  0xffffffffffffffffffffffffffffffffffffffff\n  and\n  mul\n  or\n  swap1\n  sstore\n  pop\n    /* \"contracts/Controller.sol\":287:404  constructor(address _compliance) {... */\n  pop\n    /* \"contracts/Controller.sol\":91:553  contract Controller {... */\n  jump(tag_6)\n    /* \"#utility.yul\":88:205   */\ntag_8:\n    /* \"#utility.yul\":197:198   */\n  0x00\n    /* \"#utility.yul\":194:195   */\n  dup1\n    /* \"#utility.yul\":187:199   */\n  revert\n    /* \"#utility.yul\":334:460   */\ntag_10:\n    /* \"#utility.yul\":371:378   */\n  0x00\n    /* \"#utility.yul\":411:453   */\n  0xffffffffffffffffffffffffffffffffffffffff\n    /* \"#utility.yul\":404:409   */\n  dup3\n    /* \"#utility.yul\":400:454   */\n  and\n    /* \"#utility.yul\":389:454   */\n  swap1\n  pop\n    /* \"#utility.yul\":334:460   */\n  swap2\n  swap1\n  pop\n  jump\t// out\n    /* \"#utility.yul\":466:562   */\ntag_11:\n    /* \"#utility.yul\":503:510   */\n  0x00\n    /* \"#utility.yul\":532:556   */\n  tag_20\n    /* \"#utility.yul\":550:555   */\n  dup3\n    /* \"#utility.yul\":532:556   */\n  tag_10\n  jump\t// in\ntag_20:\n    /* \"#utility.yul\":521:556   */\n  swap1\n  pop\n    /* \"#utility.yul\":466:562   */\n  swap2\n  swap1\n  pop\n  jump\t// out\n    /* \"#utility.yul\":568:690   */\ntag_12:\n    /* \"#utility.yul\":641:665   */\n  tag_22\n    /* \"#utility.yul\":659:664   */\n  dup2\n    /* \"#utility.yul\":641:665   */\n  tag_11\n  jump\t// in\ntag_22:\n    /* \"#utility.yul\":634:639   */\n  dup2\n    /* \"#utility.yul\":631:666   */\n  eq\n    /* \"#utility.yul\":621:684   */\n  tag_23\n  jumpi\n    /* \"#utility.yul\":680:681   */\n  0x00\n    /* \"#utility.yul\":677:678   */\n  dup1\n    /* \"#utility.yul\":670:682   */\n  revert\n    /* \"#utility.yul\":621:684   */\ntag_23:\n    /* \"#utility.yul\":568:690   */\n  pop\n  jump\t// out\n    /* \"#utility.yul\":696:839   */\ntag_13:\n    /* \"#utility.yul\":753:758   */\n  0x00\n    /* \"#utility.yul\":784:790   */\n  dup2\n    /* \"#utility.yul\":778:791   */\n  mload\n    /* \"#utility.yul\":769:791   */\n  swap1\n  pop\n    /* \"#utility.yul\":800:833   */\n  tag_25\n    /* \"#utility.yul\":827:832   */\n  dup2\n    /* \"#utility.yul\":800:833   */\n  tag_12\n  jump\t// in\ntag_25:\n    /* \"#utility.yul\":696:839   */\n  swap3\n  swap2\n  pop\n  pop\n  jump\t// out\n    /* \"#utility.yul\":845:1196   */\ntag_3:\n    /* \"#utility.yul\":915:921   */\n  0x00\n    /* \"#utility.yul\":964:966   */\n  0x20\n    /* \"#utility.yul\":952:961   */\n  dup3\n    /* \"#utility.yul\":943:950   */\n  dup5\n    /* \"#utility.yul\":939:962   */\n  sub\n    /* \"#utility.yul\":935:967   */\n  slt\n    /* \"#utility.yul\":932:1051   */\n  iszero\n  tag_27\n  jumpi\n    /* \"#utility.yul\":970:1049   */\n  tag_28\n  tag_8\n  jump\t// in\ntag_28:\n    /* \"#utility.yul\":932:1051   */\ntag_27:\n    /* \"#utility.yul\":1090:1091   */\n  0x00\n    /* \"#utility.yul\":1115:1179   */\n  tag_29\n    /* \"#utility.yul\":1171:1178   */\n  dup5\n    /* \"#utility.yul\":1162:1168   */\n  dup3\n    /* \"#utility.yul\":1151:1160   */\n  dup6\n    /* \"#utility.yul\":1147:1169   */\n  add\n    /* \"#utility.yul\":1115:1179   */\n  tag_13\n  jump\t// in\ntag_29:\n    /* \"#utility.yul\":1105:1179   */\n  swap2\n  pop\n    /* \"#utility.yul\":1061:1189   */\n  pop\n    /* \"#utility.yul\":845:1196   */\n  swap3\n  swap2\n  pop\n  pop\n  jump\t// out\n    /* \"contracts/Controller.sol\":91:553  contract Controller {... */\ntag_6:\n  dataSize(sub_0)\n  dup1\n  dataOffset(sub_0)\n  0x00\n  codecopy\n  0x00\n  return\nstop\n\nsub_0: assembly {\n        /* \"contracts/Controller.sol\":91:553  contract Controller {... */\n      mstore(0x40, 0x80)\n      callvalue\n      dup1\n      iszero\n      tag_1\n      jumpi\n      0x00\n      dup1\n      revert\n    tag_1:\n      pop\n      jumpi(tag_2, lt(calldatasize, 0x04))\n      shr(0xe0, calldataload(0x00))\n      dup1\n      0x43094610\n      eq\n      tag_3\n      jumpi\n      dup1\n      0xf851a440\n      eq\n      tag_4\n      jumpi\n    tag_2:\n      0x00\n      dup1\n      revert\n        /* \"contracts/Controller.sol\":412:550  function checkCompliance(address from, address to) external view returns (bool) {... */\n    tag_3:\n      tag_5\n      0x04\n      dup1\n      calldatasize\n      sub\n      dup2\n      add\n      swap1\n      tag_6\n      swap2\n      swap1\n      tag_7\n      jump\t// in\n    tag_6:\n      tag_8\n      jump\t// in\n    tag_5:\n      mload(0x40)\n      tag_9\n      swap2\n      swap1\n      tag_10\n      jump\t// in\n    tag_9:\n      mload(0x40)\n      dup1\n      swap2\n      sub\n      swap1\n      return\n        /* \"contracts/Controller.sol\":154:174  address public admin */\n    tag_4:\n      tag_11\n      tag_12\n      jump\t// in\n    tag_11:\n      mload(0x40)\n      tag_13\n      swap2\n      swap1\n      tag_14\n      jump\t// in\n    tag_13:\n      mload(0x40)\n      dup1\n      swap2\n      sub\n      swap1\n      return\n        /* \"contracts/Controller.sol\":412:550  function checkCompliance(address from, address to) external view returns (bool) {... */\n    tag_8:\n        /* \"contracts/Controller.sol\":486:490  bool */\n      0x00\n        /* \"contracts/Controller.sol\":510:520  compliance */\n      dup1\n      0x00\n      swap1\n      sload\n      swap1\n      0x0100\n      exp\n      swap1\n      div\n      0xffffffffffffffffffffffffffffffffffffffff\n      and\n        /* \"contracts/Controller.sol\":510:532  compliance.canTransfer */\n      0xffffffffffffffffffffffffffffffffffffffff\n      and\n      0x6c85cf67\n        /* \"contracts/Controller.sol\":533:537  from */\n      dup5\n        /* \"contracts/Controller.sol\":539:541  to */\n      dup5\n        /* \"contracts/Controller.sol\":510:542  compliance.canTransfer(from, to) */\n      mload(0x40)\n      dup4\n      0xffffffff\n      and\n      0xe0\n      shl\n      dup2\n      mstore\n      0x04\n      add\n      tag_16\n      swap3\n      swap2\n      swap1\n      tag_17\n      jump\t// in\n    tag_16:\n      0x20\n      mload(0x40)\n      dup1\n      dup4\n      sub\n      dup2\n      dup7\n      gas\n      staticcall\n      iszero\n      dup1\n      iszero\n      tag_19\n      jumpi\n      returndatasize\n      0x00\n      dup1\n      returndatacopy\n      revert(0x00, returndatasize)\n    tag_19:\n      pop\n      pop\n      pop\n      pop\n      mload(0x40)\n      returndatasize\n      not(0x1f)\n      0x1f\n      dup3\n      add\n      and\n      dup3\n      add\n      dup1\n      0x40\n      mstore\n      pop\n      dup2\n      add\n      swap1\n      tag_20\n      swap2\n      swap1\n      tag_21\n      jump\t// in\n    tag_20:\n        /* \"contracts/Controller.sol\":503:542  return compliance.canTransfer(from, to) */\n      swap1\n      pop\n        /* \"contracts/Controller.sol\":412:550  function checkCompliance(address from, address to) external view returns (bool) {... */\n      swap3\n      swap2\n      pop\n      pop\n      jump\t// out\n        /* \"contracts/Controller.sol\":154:174  address public admin */\n    tag_12:\n      0x01\n      0x00\n      swap1\n      sload\n      swap1\n      0x0100\n      exp\n      swap1\n      div\n      0xffffffffffffffffffffffffffffffffffffffff\n      and\n      dup2\n      jump\t// out\n        /* \"#utility.yul\":88:205   */\n    tag_23:\n        /* \"#utility.yul\":197:198   */\n      0x00\n        /* \"#utility.yul\":194:195   */\n      dup1\n        /* \"#utility.yul\":187:199   */\n      revert\n        /* \"#utility.yul\":334:460   */\n    tag_25:\n        /* \"#utility.yul\":371:378   */\n      0x00\n        /* \"#utility.yul\":411:453   */\n      0xffffffffffffffffffffffffffffffffffffffff\n        /* \"#utility.yul\":404:409   */\n      dup3\n        /* \"#utility.yul\":400:454   */\n      and\n        /* \"#utility.yul\":389:454   */\n      swap1\n      pop\n        /* \"#utility.yul\":334:460   */\n      swap2\n      swap1\n      pop\n      jump\t// out\n        /* \"#utility.yul\":466:562   */\n    tag_26:\n        /* \"#utility.yul\":503:510   */\n      0x00\n        /* \"#utility.yul\":532:556   */\n      tag_40\n        /* \"#utility.yul\":550:555   */\n      dup3\n        /* \"#utility.yul\":532:556   */\n      tag_25\n      jump\t// in\n    tag_40:\n        /* \"#utility.yul\":521:556   */\n      swap1\n      pop\n        /* \"#utility.yul\":466:562   */\n      swap2\n      swap1\n      pop\n      jump\t// out\n        /* \"#utility.yul\":568:690   */\n    tag_27:\n        /* \"#utility.yul\":641:665   */\n      tag_42\n        /* \"#utility.yul\":659:664   */\n      dup2\n        /* \"#utility.yul\":641:665   */\n      tag_26\n      jump\t// in\n    tag_42:\n        /* \"#utility.yul\":634:639   */\n      dup2\n        /* \"#utility.yul\":631:666   */\n      eq\n        /* \"#utility.yul\":621:684   */\n      tag_43\n      jumpi\n        /* \"#utility.yul\":680:681   */\n      0x00\n        /* \"#utility.yul\":677:678   */\n      dup1\n        /* \"#utility.yul\":670:682   */\n      revert\n        /* \"#utility.yul\":621:684   */\n    tag_43:\n        /* \"#utility.yul\":568:690   */\n      pop\n      jump\t// out\n        /* \"#utility.yul\":696:835   */\n    tag_28:\n        /* \"#utility.yul\":742:747   */\n      0x00\n        /* \"#utility.yul\":780:786   */\n      dup2\n        /* \"#utility.yul\":767:787   */\n      calldataload\n        /* \"#utility.yul\":758:787   */\n      swap1\n      pop\n        /* \"#utility.yul\":796:829   */\n      tag_45\n        /* \"#utility.yul\":823:828   */\n      dup2\n        /* \"#utility.yul\":796:829   */\n      tag_27\n      jump\t// in\n    tag_45:\n        /* \"#utility.yul\":696:835   */\n      swap3\n      swap2\n      pop\n      pop\n      jump\t// out\n        /* \"#utility.yul\":841:1315   */\n    tag_7:\n        /* \"#utility.yul\":909:915   */\n      0x00\n        /* \"#utility.yul\":917:923   */\n      dup1\n        /* \"#utility.yul\":966:968   */\n      0x40\n        /* \"#utility.yul\":954:963   */\n      dup4\n        /* \"#utility.yul\":945:952   */\n      dup6\n        /* \"#utility.yul\":941:964   */\n      sub\n        /* \"#utility.yul\":937:969   */\n      slt\n        /* \"#utility.yul\":934:1053   */\n      iszero\n      tag_47\n      jumpi\n        /* \"#utility.yul\":972:1051   */\n      tag_48\n      tag_23\n      jump\t// in\n    tag_48:\n        /* \"#utility.yul\":934:1053   */\n    tag_47:\n        /* \"#utility.yul\":1092:1093   */\n      0x00\n        /* \"#utility.yul\":1117:1170   */\n      tag_49\n        /* \"#utility.yul\":1162:1169   */\n      dup6\n        /* \"#utility.yul\":1153:1159   */\n      dup3\n        /* \"#utility.yul\":1142:1151   */\n      dup7\n        /* \"#utility.yul\":1138:1160   */\n      add\n        /* \"#utility.yul\":1117:1170   */\n      tag_28\n      jump\t// in\n    tag_49:\n        /* \"#utility.yul\":1107:1170   */\n      swap3\n      pop\n        /* \"#utility.yul\":1063:1180   */\n      pop\n        /* \"#utility.yul\":1219:1221   */\n      0x20\n        /* \"#utility.yul\":1245:1298   */\n      tag_50\n        /* \"#utility.yul\":1290:1297   */\n      dup6\n        /* \"#utility.yul\":1281:1287   */\n      dup3\n        /* \"#utility.yul\":1270:1279   */\n      dup7\n        /* \"#utility.yul\":1266:1288   */\n      add\n        /* \"#utility.yul\":1245:1298   */\n      tag_28\n      jump\t// in\n    tag_50:\n        /* \"#utility.yul\":1235:1298   */\n      swap2\n      pop\n        /* \"#utility.yul\":1190:1308   */\n      pop\n        /* \"#utility.yul\":841:1315   */\n      swap3\n      pop\n      swap3\n      swap1\n      pop\n      jump\t// out\n        /* \"#utility.yul\":1321:1411   */\n    tag_29:\n        /* \"#utility.yul\":1355:1362   */\n      0x00\n        /* \"#utility.yul\":1398:1403   */\n      dup2\n        /* \"#utility.yul\":1391:1404   */\n      iszero\n        /* \"#utility.yul\":1384:1405   */\n      iszero\n        /* \"#utility.yul\":1373:1405   */\n      swap1\n      pop\n        /* \"#utility.yul\":1321:1411   */\n      swap2\n      swap1\n      pop\n      jump\t// out\n        /* \"#utility.yul\":1417:1526   */\n    tag_30:\n        /* \"#utility.yul\":1498:1519   */\n      tag_53\n        /* \"#utility.yul\":1513:1518   */\n      dup2\n        /* \"#utility.yul\":1498:1519   */\n      tag_29\n      jump\t// in\n    tag_53:\n        /* \"#utility.yul\":1493:1496   */\n      dup3\n        /* \"#utility.yul\":1486:1520   */\n      mstore\n        /* \"#utility.yul\":1417:1526   */\n      pop\n      pop\n      jump\t// out\n        /* \"#utility.yul\":1532:1742   */\n    tag_10:\n        /* \"#utility.yul\":1619:1623   */\n      0x00\n        /* \"#utility.yul\":1657:1659   */\n      0x20\n        /* \"#utility.yul\":1646:1655   */\n      dup3\n        /* \"#utility.yul\":1642:1660   */\n      add\n        /* \"#utility.yul\":1634:1660   */\n      swap1\n      pop\n        /* \"#utility.yul\":1670:1735   */\n      tag_55\n        /* \"#utility.yul\":1732:1733   */\n      0x00\n        /* \"#utility.yul\":1721:1730   */\n      dup4\n        /* \"#utility.yul\":1717:1734   */\n      add\n        /* \"#utility.yul\":1708:1714   */\n      dup5\n        /* \"#utility.yul\":1670:1735   */\n      tag_30\n      jump\t// in\n    tag_55:\n        /* \"#utility.yul\":1532:1742   */\n      swap3\n      swap2\n      pop\n      pop\n      jump\t// out\n        /* \"#utility.yul\":1748:1866   */\n    tag_31:\n        /* \"#utility.yul\":1835:1859   */\n      tag_57\n        /* \"#utility.yul\":1853:1858   */\n      dup2\n        /* \"#utility.yul\":1835:1859   */\n      tag_26\n      jump\t// in\n    tag_57:\n        /* \"#utility.yul\":1830:1833   */\n      dup3\n        /* \"#utility.yul\":1823:1860   */\n      mstore\n        /* \"#utility.yul\":1748:1866   */\n      pop\n      pop\n      jump\t// out\n        /* \"#utility.yul\":1872:2094   */\n    tag_14:\n        /* \"#utility.yul\":1965:1969   */\n      0x00\n        /* \"#utility.yul\":2003:2005   */\n      0x20\n        /* \"#utility.yul\":1992:2001   */\n      dup3\n        /* \"#utility.yul\":1988:2006   */\n      add\n        /* \"#utility.yul\":1980:2006   */\n      swap1\n      pop\n        /* \"#utility.yul\":2016:2087   */\n      tag_59\n        /* \"#utility.yul\":2084:2085   */\n      0x00\n        /* \"#utility.yul\":2073:2082   */\n      dup4\n        /* \"#utility.yul\":2069:2086   */\n      add\n        /* \"#utility.yul\":2060:2066   */\n      dup5\n        /* \"#utility.yul\":2016:2087   */\n      tag_31\n      jump\t// in\n    tag_59:\n        /* \"#utility.yul\":1872:2094   */\n      swap3\n      swap2\n      pop\n      pop\n      jump\t// out\n        /* \"#utility.yul\":2100:2432   */\n    tag_17:\n        /* \"#utility.yul\":2221:2225   */\n      0x00\n        /* \"#utility.yul\":2259:2261   */\n      0x40\n        /* \"#utility.yul\":2248:2257   */\n      dup3\n        /* \"#utility.yul\":2244:2262   */\n      add\n        /* \"#utility.yul\":2236:2262   */\n      swap1\n      pop\n        /* \"#utility.yul\":2272:2343   */\n      tag_61\n        /* \"#utility.yul\":2340:2341   */\n      0x00\n        /* \"#utility.yul\":2329:2338   */\n      dup4\n        /* \"#utility.yul\":2325:2342   */\n      add\n        /* \"#utility.yul\":2316:2322   */\n      dup6\n        /* \"#utility.yul\":2272:2343   */\n      tag_31\n      jump\t// in\n    tag_61:\n        /* \"#utility.yul\":2353:2425   */\n      tag_62\n        /* \"#utility.yul\":2421:2423   */\n      0x20\n        /* \"#utility.yul\":2410:2419   */\n      dup4\n        /* \"#utility.yul\":2406:2424   */\n      add\n        /* \"#utility.yul\":2397:2403   */\n      dup5\n        /* \"#utility.yul\":2353:2425   */\n      tag_31\n      jump\t// in\n    tag_62:\n        /* \"#utility.yul\":2100:2432   */\n      swap4\n      swap3\n      pop\n      pop\n      pop\n      jump\t// out\n        /* \"#utility.yul\":2438:2554   */\n    tag_32:\n        /* \"#utility.yul\":2508:2529   */\n      tag_64\n        /* \"#utility.yul\":2523:2528   */\n      dup2\n        /* \"#utility.yul\":2508:2529   */\n      tag_29\n      jump\t// in\n    tag_64:\n        /* \"#utility.yul\":2501:2506   */\n      dup2\n        /* \"#utility.yul\":2498:2530   */\n      eq\n        /* \"#utility.yul\":2488:2548   */\n      tag_65\n      jumpi\n        /* \"#utility.yul\":2544:2545   */\n      0x00\n        /* \"#utility.yul\":2541:2542   */\n      dup1\n        /* \"#utility.yul\":2534:2546   */\n      revert\n        /* \"#utility.yul\":2488:2548   */\n    tag_65:\n        /* \"#utility.yul\":2438:2554   */\n      pop\n      jump\t// out\n        /* \"#utility.yul\":2560:2697   */\n    tag_33:\n        /* \"#utility.yul\":2614:2619   */\n      0x00\n        /* \"#utility.yul\":2645:2651   */\n      dup2\n        /* \"#utility.yul\":2639:2652   */\n      mload\n        /* \"#utility.yul\":2630:2652   */\n      swap1\n      pop\n        /* \"#utility.yul\":2661:2691   */\n      tag_67\n        /* \"#utility.yul\":2685:2690   */\n      dup2\n        /* \"#utility.yul\":2661:2691   */\n      tag_32\n      jump\t// in\n    tag_67:\n        /* \"#utility.yul\":2560:2697   */\n      swap3\n      swap2\n      pop\n      pop\n      jump\t// out\n        /* \"#utility.yul\":2703:3048   */\n    tag_21:\n        /* \"#utility.yul\":2770:2776   */\n      0x00\n        /* \"#utility.yul\":2819:2821   */\n      0x20\n        /* \"#utility.yul\":2807:2816   */\n      dup3\n        /* \"#utility.yul\":2798:2805   */\n      dup5\n        /* \"#utility.yul\":2794:2817   */\n      sub\n        /* \"#utility.yul\":2790:2822   */\n      slt\n        /* \"#utility.yul\":2787:2906   */\n      iszero\n      tag_69\n      jumpi\n        /* \"#utility.yul\":2825:2904   */\n      tag_70\n      tag_23\n      jump\t// in\n    tag_70:\n        /* \"#utility.yul\":2787:2906   */\n    tag_69:\n        /* \"#utility.yul\":2945:2946   */\n      0x00\n        /* \"#utility.yul\":2970:3031   */\n      tag_71\n        /* \"#utility.yul\":3023:3030   */\n      dup5\n        /* \"#utility.yul\":3014:3020   */\n      dup3\n        /* \"#utility.yul\":3003:3012   */\n      dup6\n        /* \"#utility.yul\":2999:3021   */\n      add\n        /* \"#utility.yul\":2970:3031   */\n      tag_33\n      jump\t// in\n    tag_71:\n        /* \"#utility.yul\":2960:3031   */\n      swap2\n      pop\n        /* \"#utility.yul\":2916:3041   */\n      pop\n        /* \"#utility.yul\":2703:3048   */\n      swap3\n      swap2\n      pop\n      pop\n      jump\t// out\n\n    auxdata: 0xa264697066735822122016500852e812cf48c1e35d74c723b314436965741859cdceae96b553beb87c9464736f6c634300081a0033\n}\n",
				"bytecode": {
					"linkReferences": {},
					"object": "608060405234801561000f575f80fd5b5060405161044338038061044383398181016040528101906100319190610114565b805f806101000a81548173ffffffffffffffffffffffffffffffffffffffff021916908373ffffffffffffffffffffffffffffffffffffffff1602179055503360015f6101000a81548173ffffffffffffffffffffffffffffffffffffffff021916908373ffffffffffffffffffffffffffffffffffffffff1602179055505061013f565b5f80fd5b5f73ffffffffffffffffffffffffffffffffffffffff82169050919050565b5f6100e3826100ba565b9050919050565b6100f3816100d9565b81146100fd575f80fd5b50565b5f8151905061010e816100ea565b92915050565b5f60208284031215610129576101286100b6565b5b5f61013684828501610100565b91505092915050565b6102f78061014c5f395ff3fe608060405234801561000f575f80fd5b5060043610610034575f3560e01c80634309461014610038578063f851a44014610068575b5f80fd5b610052600480360381019061004d91906101ac565b610086565b60405161005f9190610204565b60405180910390f35b610070610129565b60405161007d919061022c565b60405180910390f35b5f805f9054906101000a900473ffffffffffffffffffffffffffffffffffffffff1673ffffffffffffffffffffffffffffffffffffffff16636c85cf6784846040518363ffffffff1660e01b81526004016100e2929190610245565b602060405180830381865afa1580156100fd573d5f803e3d5ffd5b505050506040513d601f19601f820116820180604052508101906101219190610296565b905092915050565b60015f9054906101000a900473ffffffffffffffffffffffffffffffffffffffff1681565b5f80fd5b5f73ffffffffffffffffffffffffffffffffffffffff82169050919050565b5f61017b82610152565b9050919050565b61018b81610171565b8114610195575f80fd5b50565b5f813590506101a681610182565b92915050565b5f80604083850312156101c2576101c161014e565b5b5f6101cf85828601610198565b92505060206101e085828601610198565b9150509250929050565b5f8115159050919050565b6101fe816101ea565b82525050565b5f6020820190506102175f8301846101f5565b92915050565b61022681610171565b82525050565b5f60208201905061023f5f83018461021d565b92915050565b5f6040820190506102585f83018561021d565b610265602083018461021d565b9392505050565b610275816101ea565b811461027f575f80fd5b50565b5f815190506102908161026c565b92915050565b5f602082840312156102ab576102aa61014e565b5b5f6102b884828501610282565b9150509291505056fea264697066735822122016500852e812cf48c1e35d74c723b314436965741859cdceae96b553beb87c9464736f6c634300081a0033",
					"opcodes": "PUSH1 0x80 PUSH1 0x40 MSTORE CALLVALUE DUP1 ISZERO PUSH2 0xF JUMPI PUSH0 DUP1 REVERT JUMPDEST POP PUSH1 0x40 MLOAD PUSH2 0x443 CODESIZE SUB DUP1 PUSH2 0x443 DUP4 CODECOPY DUP2 DUP2 ADD PUSH1 0x40 MSTORE DUP2 ADD SWAP1 PUSH2 0x31 SWAP2 SWAP1 PUSH2 0x114 JUMP JUMPDEST DUP1 PUSH0 DUP1 PUSH2 0x100 EXP DUP2 SLOAD DUP2 PUSH20 0xFFFFFFFFFFFFFFFFFFFFFFFFFFFFFFFFFFFFFFFF MUL NOT AND SWAP1 DUP4 PUSH20 0xFFFFFFFFFFFFFFFFFFFFFFFFFFFFFFFFFFFFFFFF AND MUL OR SWAP1 SSTORE POP CALLER PUSH1 0x1 PUSH0 PUSH2 0x100 EXP DUP2 SLOAD DUP2 PUSH20 0xFFFFFFFFFFFFFFFFFFFFFFFFFFFFFFFFFFFFFFFF MUL NOT AND SWAP1 DUP4 PUSH20 0xFFFFFFFFFFFFFFFFFFFFFFFFFFFFFFFFFFFFFFFF AND MUL OR SWAP1 SSTORE POP POP PUSH2 0x13F JUMP JUMPDEST PUSH0 DUP1 REVERT JUMPDEST PUSH0 PUSH20 0xFFFFFFFFFFFFFFFFFFFFFFFFFFFFFFFFFFFFFFFF DUP3 AND SWAP1 POP SWAP2 SWAP1 POP JUMP JUMPDEST PUSH0 PUSH2 0xE3 DUP3 PUSH2 0xBA JUMP JUMPDEST SWAP1 POP SWAP2 SWAP1 POP JUMP JUMPDEST PUSH2 0xF3 DUP2 PUSH2 0xD9 JUMP JUMPDEST DUP2 EQ PUSH2 0xFD JUMPI PUSH0 DUP1 REVERT JUMPDEST POP JUMP JUMPDEST PUSH0 DUP2 MLOAD SWAP1 POP PUSH2 0x10E DUP2 PUSH2 0xEA JUMP JUMPDEST SWAP3 SWAP2 POP POP JUMP JUMPDEST PUSH0 PUSH1 0x20 DUP3 DUP5 SUB SLT ISZERO PUSH2 0x129 JUMPI PUSH2 0x128 PUSH2 0xB6 JUMP JUMPDEST JUMPDEST PUSH0 PUSH2 0x136 DUP5 DUP3 DUP6 ADD PUSH2 0x100 JUMP JUMPDEST SWAP2 POP POP SWAP3 SWAP2 POP POP JUMP JUMPDEST PUSH2 0x2F7 DUP1 PUSH2 0x14C PUSH0 CODECOPY PUSH0 RETURN INVALID PUSH1 0x80 PUSH1 0x40 MSTORE CALLVALUE DUP1 ISZERO PUSH2 0xF JUMPI PUSH0 DUP1 REVERT JUMPDEST POP PUSH1 0x4 CALLDATASIZE LT PUSH2 0x34 JUMPI PUSH0 CALLDATALOAD PUSH1 0xE0 SHR DUP1 PUSH4 0x43094610 EQ PUSH2 0x38 JUMPI DUP1 PUSH4 0xF851A440 EQ PUSH2 0x68 JUMPI JUMPDEST PUSH0 DUP1 REVERT JUMPDEST PUSH2 0x52 PUSH1 0x4 DUP1 CALLDATASIZE SUB DUP2 ADD SWAP1 PUSH2 0x4D SWAP2 SWAP1 PUSH2 0x1AC JUMP JUMPDEST PUSH2 0x86 JUMP JUMPDEST PUSH1 0x40 MLOAD PUSH2 0x5F SWAP2 SWAP1 PUSH2 0x204 JUMP JUMPDEST PUSH1 0x40 MLOAD DUP1 SWAP2 SUB SWAP1 RETURN JUMPDEST PUSH2 0x70 PUSH2 0x129 JUMP JUMPDEST PUSH1 0x40 MLOAD PUSH2 0x7D SWAP2 SWAP1 PUSH2 0x22C JUMP JUMPDEST PUSH1 0x40 MLOAD DUP1 SWAP2 SUB SWAP1 RETURN JUMPDEST PUSH0 DUP1 PUSH0 SWAP1 SLOAD SWAP1 PUSH2 0x100 EXP SWAP1 DIV PUSH20 0xFFFFFFFFFFFFFFFFFFFFFFFFFFFFFFFFFFFFFFFF AND PUSH20 0xFFFFFFFFFFFFFFFFFFFFFFFFFFFFFFFFFFFFFFFF AND PUSH4 0x6C85CF67 DUP5 DUP5 PUSH1 0x40 MLOAD DUP4 PUSH4 0xFFFFFFFF AND PUSH1 0xE0 SHL DUP2 MSTORE PUSH1 0x4 ADD PUSH2 0xE2 SWAP3 SWAP2 SWAP1 PUSH2 0x245 JUMP JUMPDEST PUSH1 0x20 PUSH1 0x40 MLOAD DUP1 DUP4 SUB DUP2 DUP7 GAS STATICCALL ISZERO DUP1 ISZERO PUSH2 0xFD JUMPI RETURNDATASIZE PUSH0 DUP1 RETURNDATACOPY RETURNDATASIZE PUSH0 REVERT JUMPDEST POP POP POP POP PUSH1 0x40 MLOAD RETURNDATASIZE PUSH1 0x1F NOT PUSH1 0x1F DUP3 ADD AND DUP3 ADD DUP1 PUSH1 0x40 MSTORE POP DUP2 ADD SWAP1 PUSH2 0x121 SWAP2 SWAP1 PUSH2 0x296 JUMP JUMPDEST SWAP1 POP SWAP3 SWAP2 POP POP JUMP JUMPDEST PUSH1 0x1 PUSH0 SWAP1 SLOAD SWAP1 PUSH2 0x100 EXP SWAP1 DIV PUSH20 0xFFFFFFFFFFFFFFFFFFFFFFFFFFFFFFFFFFFFFFFF AND DUP2 JUMP JUMPDEST PUSH0 DUP1 REVERT JUMPDEST PUSH0 PUSH20 0xFFFFFFFFFFFFFFFFFFFFFFFFFFFFFFFFFFFFFFFF DUP3 AND SWAP1 POP SWAP2 SWAP1 POP JUMP JUMPDEST PUSH0 PUSH2 0x17B DUP3 PUSH2 0x152 JUMP JUMPDEST SWAP1 POP SWAP2 SWAP1 POP JUMP JUMPDEST PUSH2 0x18B DUP2 PUSH2 0x171 JUMP JUMPDEST DUP2 EQ PUSH2 0x195 JUMPI PUSH0 DUP1 REVERT JUMPDEST POP JUMP JUMPDEST PUSH0 DUP2 CALLDATALOAD SWAP1 POP PUSH2 0x1A6 DUP2 PUSH2 0x182 JUMP JUMPDEST SWAP3 SWAP2 POP POP JUMP JUMPDEST PUSH0 DUP1 PUSH1 0x40 DUP4 DUP6 SUB SLT ISZERO PUSH2 0x1C2 JUMPI PUSH2 0x1C1 PUSH2 0x14E JUMP JUMPDEST JUMPDEST PUSH0 PUSH2 0x1CF DUP6 DUP3 DUP7 ADD PUSH2 0x198 JUMP JUMPDEST SWAP3 POP POP PUSH1 0x20 PUSH2 0x1E0 DUP6 DUP3 DUP7 ADD PUSH2 0x198 JUMP JUMPDEST SWAP2 POP POP SWAP3 POP SWAP3 SWAP1 POP JUMP JUMPDEST PUSH0 DUP2 ISZERO ISZERO SWAP1 POP SWAP2 SWAP1 POP JUMP JUMPDEST PUSH2 0x1FE DUP2 PUSH2 0x1EA JUMP JUMPDEST DUP3 MSTORE POP POP JUMP JUMPDEST PUSH0 PUSH1 0x20 DUP3 ADD SWAP1 POP PUSH2 0x217 PUSH0 DUP4 ADD DUP5 PUSH2 0x1F5 JUMP JUMPDEST SWAP3 SWAP2 POP POP JUMP JUMPDEST PUSH2 0x226 DUP2 PUSH2 0x171 JUMP JUMPDEST DUP3 MSTORE POP POP JUMP JUMPDEST PUSH0 PUSH1 0x20 DUP3 ADD SWAP1 POP PUSH2 0x23F PUSH0 DUP4 ADD DUP5 PUSH2 0x21D JUMP JUMPDEST SWAP3 SWAP2 POP POP JUMP JUMPDEST PUSH0 PUSH1 0x40 DUP3 ADD SWAP1 POP PUSH2 0x258 PUSH0 DUP4 ADD DUP6 PUSH2 0x21D JUMP JUMPDEST PUSH2 0x265 PUSH1 0x20 DUP4 ADD DUP5 PUSH2 0x21D JUMP JUMPDEST SWAP4 SWAP3 POP POP POP JUMP JUMPDEST PUSH2 0x275 DUP2 PUSH2 0x1EA JUMP JUMPDEST DUP2 EQ PUSH2 0x27F JUMPI PUSH0 DUP1 REVERT JUMPDEST POP JUMP JUMPDEST PUSH0 DUP2 MLOAD SWAP1 POP PUSH2 0x290 DUP2 PUSH2 0x26C JUMP JUMPDEST SWAP3 SWAP2 POP POP JUMP JUMPDEST PUSH0 PUSH1 0x20 DUP3 DUP5 SUB SLT ISZERO PUSH2 0x2AB JUMPI PUSH2 0x2AA PUSH2 0x14E JUMP JUMPDEST JUMPDEST PUSH0 PUSH2 0x2B8 DUP5 DUP3 DUP6 ADD PUSH2 0x282 JUMP JUMPDEST SWAP2 POP POP SWAP3 SWAP2 POP POP JUMP INVALID LOG2 PUSH5 0x6970667358 0x22 SLT KECCAK256 AND POP ADDMOD MSTORE 0xE8 SLT 0xCF BASEFEE 0xC1 0xE3 TSTORE PUSH21 0xC723B314436965741859CDCEAE96B553BEB87C9464 PUSH20 0x6F6C634300081A00330000000000000000000000 "
				},
				"gasEstimates": {
					"creation": {
						"codeDepositCost": "151800",
						"executionCost": "infinite",
						"totalCost": "infinite"
					},
					"external": {
						"admin()": "2508",
						"checkCompliance(address,address)": "infinite"
					}
				},
				"methodIdentifiers": {
					"admin()": "f851a440",
					"checkCompliance(address,address)": "43094610"
				}
			},
			"storageLayout": {
				"storage": [
					{
						"astId": 75,
						"contract": "contracts/Controller.sol:Controller",
						"label": "compliance",
						"offset": 0,
						"slot": "0",
						"type": "t_contract(Compliance)69"
					},
					{
						"astId": 77,
						"contract": "contracts/Controller.sol:Controller",
						"label": "admin",
						"offset": 0,
						"slot": "1",
						"type": "t_address"
					}
				],
				"types": {
					"t_address": {
						"encoding": "inplace",
						"label": "address",
						"numberOfBytes": "20"
					},
					"t_contract(Compliance)69": {
						"encoding": "inplace",
						"label": "contract Compliance",
						"numberOfBytes": "20"
					}
				}
			},
			"userdoc": {
				"kind": "user",
				"methods": {},
				"version": 1
			}
		}
	}
}