{
	"data": {
		"bytecode": {
			"linkReferences": {},
			"object": "60c0604052612710600155348015610015575f80fd5b5060405161121d38038061121d83398181016040528101906100379190610259565b335f73ffffffffffffffffffffffffffffffffffffffff168173ffffffffffffffffffffffffffffffffffffffff16036100a8575f6040517f1e4fbdf700000000000000000000000000000000000000000000000000000000815260040161009f9190610293565b60405180910390fd5b6100b78161013a60201b60201c565b5073833589fcd6edb6e08f4c7c32d4f71b54bda0291373ffffffffffffffffffffffffffffffffffffffff1660808173ffffffffffffffffffffffffffffffffffffffff16815250508073ffffffffffffffffffffffffffffffffffffffff1660a08173ffffffffffffffffffffffffffffffffffffffff1681525050506102ac565b5f805f9054906101000a900473ffffffffffffffffffffffffffffffffffffffff169050815f806101000a81548173ffffffffffffffffffffffffffffffffffffffff021916908373ffffffffffffffffffffffffffffffffffffffff1602179055508173ffffffffffffffffffffffffffffffffffffffff168173ffffffffffffffffffffffffffffffffffffffff167f8be0079c531659141344cd1fd0a4f28419497f9722a3daafe3b4186f6b6457e060405160405180910390a35050565b5f80fd5b5f73ffffffffffffffffffffffffffffffffffffffff82169050919050565b5f610228826101ff565b9050919050565b6102388161021e565b8114610242575f80fd5b50565b5f815190506102538161022f565b92915050565b5f6020828403121561026e5761026d6101fb565b5b5f61027b84828501610245565b91505092915050565b61028d8161021e565b82525050565b5f6020820190506102a65f830184610284565b92915050565b60805160a051610f2d6102f05f395f818161029e015281816102db01526105a601525f818161018901528181610200015281816103ea01526104c70152610f2d5ff3fe608060405234801561000f575f80fd5b5060043610610091575f3560e01c80636a61e5fc116100645780636a61e5fc14610109578063715018a6146101255780637ff9b5961461012f5780638da5cb5b1461014d578063f2fde38b1461016b57610091565b806311eac855146100955780633610724e146100b357806344471fd9146100cf578063502d7f76146100eb575b5f80fd5b61009d610187565b6040516100aa9190610867565b60405180910390f35b6100cd60048036038101906100c891906108b7565b6101ab565b005b6100e960048036038101906100e4919061091d565b6103df565b005b6100f36105a4565b604051610100919061097b565b60405180910390f35b610123600480360381019061011e91906108b7565b6105c8565b005b61012d6105da565b005b6101376105ed565b60405161014491906109a3565b60405180910390f35b6101556105f3565b60405161016291906109cb565b60405180910390f35b610185600480360381019061018091906109e4565b61061a565b005b7f000000000000000000000000000000000000000000000000000000000000000081565b5f81116101ed576040517f08c379a00000000000000000000000000000000000000000000000000000000081526004016101e490610a69565b60405180910390fd5b5f600154826101fc9190610ae1565b90507f000000000000000000000000000000000000000000000000000000000000000073ffffffffffffffffffffffffffffffffffffffff166323b872dd3330856040518463ffffffff1660e01b815260040161025b93929190610b11565b6020604051808303815f875af1158015610277573d5f803e3d5ffd5b505050506040513d601f19601f8201168201806040525081019061029b9190610b7b565b507f000000000000000000000000000000000000000000000000000000000000000073ffffffffffffffffffffffffffffffffffffffff1663a9059cbb337f000000000000000000000000000000000000000000000000000000000000000073ffffffffffffffffffffffffffffffffffffffff1663313ce5676040518163ffffffff1660e01b8152600401602060405180830381865afa158015610342573d5f803e3d5ffd5b505050506040513d601f19601f820116820180604052508101906103669190610bdc565b600a6103729190610d36565b8461037d9190610d80565b6040518363ffffffff1660e01b815260040161039a929190610dc1565b6020604051808303815f875af11580156103b6573d5f803e3d5ffd5b505050506040513d601f19601f820116820180604052508101906103da9190610b7b565b505050565b6103e761069e565b5f7f000000000000000000000000000000000000000000000000000000000000000073ffffffffffffffffffffffffffffffffffffffff166370a08231306040518263ffffffff1660e01b815260040161044191906109cb565b602060405180830381865afa15801561045c573d5f803e3d5ffd5b505050506040513d601f19601f820116820180604052508101906104809190610dfc565b9050818110156104c5576040517f08c379a00000000000000000000000000000000000000000000000000000000081526004016104bc90610e71565b60405180910390fd5b7f000000000000000000000000000000000000000000000000000000000000000073ffffffffffffffffffffffffffffffffffffffff1663a9059cbb84846040518363ffffffff1660e01b8152600401610520929190610dc1565b6020604051808303815f875af115801561053c573d5f803e3d5ffd5b505050506040513d601f19601f820116820180604052508101906105609190610b7b565b61059f576040517f08c379a000000000000000000000000000000000000000000000000000000000815260040161059690610ed9565b60405180910390fd5b505050565b7f000000000000000000000000000000000000000000000000000000000000000081565b6105d061069e565b8060018190555050565b6105e261069e565b6105eb5f610725565b565b60015481565b5f805f9054906101000a900473ffffffffffffffffffffffffffffffffffffffff16905090565b61062261069e565b5f73ffffffffffffffffffffffffffffffffffffffff168173ffffffffffffffffffffffffffffffffffffffff1603610692575f6040517f1e4fbdf700000000000000000000000000000000000000000000000000000000815260040161068991906109cb565b60405180910390fd5b61069b81610725565b50565b6106a66107e6565b73ffffffffffffffffffffffffffffffffffffffff166106c46105f3565b73ffffffffffffffffffffffffffffffffffffffff1614610723576106e76107e6565b6040517f118cdaa700000000000000000000000000000000000000000000000000000000815260040161071a91906109cb565b60405180910390fd5b565b5f805f9054906101000a900473ffffffffffffffffffffffffffffffffffffffff169050815f806101000a81548173ffffffffffffffffffffffffffffffffffffffff021916908373ffffffffffffffffffffffffffffffffffffffff1602179055508173ffffffffffffffffffffffffffffffffffffffff168173ffffffffffffffffffffffffffffffffffffffff167f8be0079c531659141344cd1fd0a4f28419497f9722a3daafe3b4186f6b6457e060405160405180910390a35050565b5f33905090565b5f73ffffffffffffffffffffffffffffffffffffffff82169050919050565b5f819050919050565b5f61082f61082a610825846107ed565b61080c565b6107ed565b9050919050565b5f61084082610815565b9050919050565b5f61085182610836565b9050919050565b61086181610847565b82525050565b5f60208201905061087a5f830184610858565b92915050565b5f80fd5b5f819050919050565b61089681610884565b81146108a0575f80fd5b50565b5f813590506108b18161088d565b92915050565b5f602082840312156108cc576108cb610880565b5b5f6108d9848285016108a3565b91505092915050565b5f6108ec826107ed565b9050919050565b6108fc816108e2565b8114610906575f80fd5b50565b5f81359050610917816108f3565b92915050565b5f806040838503121561093357610932610880565b5b5f61094085828601610909565b9250506020610951858286016108a3565b9150509250929050565b5f61096582610836565b9050919050565b6109758161095b565b82525050565b5f60208201905061098e5f83018461096c565b92915050565b61099d81610884565b82525050565b5f6020820190506109b65f830184610994565b92915050565b6109c5816108e2565b82525050565b5f6020820190506109de5f8301846109bc565b92915050565b5f602082840312156109f9576109f8610880565b5b5f610a0684828501610909565b91505092915050565b5f82825260208201905092915050565b7f5553444320616d6f756e742030000000000000000000000000000000000000005f82015250565b5f610a53600d83610a0f565b9150610a5e82610a1f565b602082019050919050565b5f6020820190508181035f830152610a8081610a47565b9050919050565b7f4e487b71000000000000000000000000000000000000000000000000000000005f52601260045260245ffd5b7f4e487b71000000000000000000000000000000000000000000000000000000005f52601160045260245ffd5b5f610aeb82610884565b9150610af683610884565b925082610b0657610b05610a87565b5b828204905092915050565b5f606082019050610b245f8301866109bc565b610b3160208301856109bc565b610b3e6040830184610994565b949350505050565b5f8115159050919050565b610b5a81610b46565b8114610b64575f80fd5b50565b5f81519050610b7581610b51565b92915050565b5f60208284031215610b9057610b8f610880565b5b5f610b9d84828501610b67565b91505092915050565b5f60ff82169050919050565b610bbb81610ba6565b8114610bc5575f80fd5b50565b5f81519050610bd681610bb2565b92915050565b5f60208284031215610bf157610bf0610880565b5b5f610bfe84828501610bc8565b91505092915050565b5f8160011c9050919050565b5f808291508390505b6001851115610c5c57808604811115610c3857610c37610ab4565b5b6001851615610c475780820291505b8081029050610c5585610c07565b9450610c1c565b94509492505050565b5f82610c745760019050610d2f565b81610c81575f9050610d2f565b8160018114610c975760028114610ca157610cd0565b6001915050610d2f565b60ff841115610cb357610cb2610ab4565b5b8360020a915084821115610cca57610cc9610ab4565b5b50610d2f565b5060208310610133831016604e8410600b8410161715610d055782820a905083811115610d0057610cff610ab4565b5b610d2f565b610d128484846001610c13565b92509050818404811115610d2957610d28610ab4565b5b81810290505b9392505050565b5f610d4082610884565b9150610d4b83610ba6565b9250610d787fffffffffffffffffffffffffffffffffffffffffffffffffffffffffffffffff8484610c65565b905092915050565b5f610d8a82610884565b9150610d9583610884565b9250828202610da381610884565b91508282048414831517610dba57610db9610ab4565b5b5092915050565b5f604082019050610dd45f8301856109bc565b610de16020830184610994565b9392505050565b5f81519050610df68161088d565b92915050565b5f60208284031215610e1157610e10610880565b5b5f610e1e84828501610de8565b91505092915050565b7f496e73756666696369656e742062616c616e63650000000000000000000000005f82015250565b5f610e5b601483610a0f565b9150610e6682610e27565b602082019050919050565b5f6020820190508181035f830152610e8881610e4f565b9050919050565b7f55534443207472616e73666572206661696c65640000000000000000000000005f82015250565b5f610ec3601483610a0f565b9150610ece82610e8f565b602082019050919050565b5f6020820190508181035f830152610ef081610eb7565b905091905056fea2646970667358221220fb8c2bb78628239ad9b70bc81167122b2f2c7ab4605d801122960812c03d19bd64736f6c634300081a0033",
			"opcodes": "PUSH1 0xC0 PUSH1 0x40 MSTORE PUSH2 0x2710 PUSH1 0x1 SSTORE CALLVALUE DUP1 ISZERO PUSH2 0x15 JUMPI PUSH0 DUP1 REVERT JUMPDEST POP PUSH1 0x40 MLOAD PUSH2 0x121D CODESIZE SUB DUP1 PUSH2 0x121D DUP4 CODECOPY DUP2 DUP2 ADD PUSH1 0x40 MSTORE DUP2 ADD SWAP1 PUSH2 0x37 SWAP2 SWAP1 PUSH2 0x259 JUMP JUMPDEST CALLER PUSH0 PUSH20 0xFFFFFFFFFFFFFFFFFFFFFFFFFFFFFFFFFFFFFFFF AND DUP2 PUSH20 0xFFFFFFFFFFFFFFFFFFFFFFFFFFFFFFFFFFFFFFFF AND SUB PUSH2 0xA8 JUMPI PUSH0 PUSH1 0x40 MLOAD PUSH32 0x1E4FBDF700000000000000000000000000000000000000000000000000000000 DUP2 MSTORE PUSH1 0x4 ADD PUSH2 0x9F SWAP2 SWAP1 PUSH2 0x293 JUMP JUMPDEST PUSH1 0x40 MLOAD DUP1 SWAP2 SUB SWAP1 REVERT JUMPDEST PUSH2 0xB7 DUP2 PUSH2 0x13A PUSH1 0x20 SHL PUSH1 0x20 SHR JUMP JUMPDEST POP PUSH20 0x833589FCD6EDB6E08F4C7C32D4F71B54BDA02913 PUSH20 0xFFFFFFFFFFFFFFFFFFFFFFFFFFFFFFFFFFFFFFFF AND PUSH1 0x80 DUP2 PUSH20 0xFFFFFFFFFFFFFFFFFFFFFFFFFFFFFFFFFFFFFFFF AND DUP2 MSTORE POP POP DUP1 PUSH20 0xFFFFFFFFFFFFFFFFFFFFFFFFFFFFFFFFFFFFFFFF AND PUSH1 0xA0 DUP2 PUSH20 0xFFFFFFFFFFFFFFFFFFFFFFFFFFFFFFFFFFFFFFFF AND DUP2 MSTORE POP POP POP PUSH2 0x2AC JUMP JUMPDEST PUSH0 DUP1 PUSH0 SWAP1 SLOAD SWAP1 PUSH2 0x100 EXP SWAP1 DIV PUSH20 0xFFFFFFFFFFFFFFFFFFFFFFFFFFFFFFFFFFFFFFFF AND SWAP1 POP DUP2 PUSH0 DUP1 PUSH2 0x100 EXP DUP2 SLOAD DUP2 PUSH20 0xFFFFFFFFFFFFFFFFFFFFFFFFFFFFFFFFFFFFFFFF MUL NOT AND SWAP1 DUP4 PUSH20 0xFFFFFFFFFFFFFFFFFFFFFFFFFFFFFFFFFFFFFFFF AND MUL OR SWAP1 SSTORE POP DUP2 PUSH20 0xFFFFFFFFFFFFFFFFFFFFFFFFFFFFFFFFFFFFFFFF AND DUP2 PUSH20 0xFFFFFFFFFFFFFFFFFFFFFFFFFFFFFFFFFFFFFFFF AND PUSH32 0x8BE0079C531659141344CD1FD0A4F28419497F9722A3DAAFE3B4186F6B6457E0 PUSH1 0x40 MLOAD PUSH1 0x40 MLOAD DUP1 SWAP2 SUB SWAP1 LOG3 POP POP JUMP JUMPDEST PUSH0 DUP1 REVERT JUMPDEST PUSH0 PUSH20 0xFFFFFFFFFFFFFFFFFFFFFFFFFFFFFFFFFFFFFFFF DUP3 AND SWAP1 POP SWAP2 SWAP1 POP JUMP JUMPDEST PUSH0 PUSH2 0x228 DUP3 PUSH2 0x1FF JUMP JUMPDEST SWAP1 POP SWAP2 SWAP1 POP JUMP JUMPDEST PUSH2 0x238 DUP2 PUSH2 0x21E JUMP JUMPDEST DUP2 EQ PUSH2 0x242 JUMPI PUSH0 DUP1 REVERT JUMPDEST POP JUMP JUMPDEST PUSH0 DUP2 MLOAD SWAP1 POP PUSH2 0x253 DUP2 PUSH2 0x22F JUMP JUMPDEST SWAP3 SWAP2 POP POP JUMP JUMPDEST PUSH0 PUSH1 0x20 DUP3 DUP5 SUB SLT ISZERO PUSH2 0x26E JUMPI PUSH2 0x26D PUSH2 0x1FB JUMP JUMPDEST JUMPDEST PUSH0 PUSH2 0x27B DUP5 DUP3 DUP6 ADD PUSH2 0x245 JUMP JUMPDEST SWAP2 POP POP SWAP3 SWAP2 POP POP JUMP JUMPDEST PUSH2 0x28D DUP2 PUSH2 0x21E JUMP JUMPDEST DUP3 MSTORE POP POP JUMP JUMPDEST PUSH0 PUSH1 0x20 DUP3 ADD SWAP1 POP PUSH2 0x2A6 PUSH0 DUP4 ADD DUP5 PUSH2 0x284 JUMP JUMPDEST SWAP3 SWAP2 POP POP JUMP JUMPDEST PUSH1 0x80 MLOAD PUSH1 0xA0 MLOAD PUSH2 0xF2D PUSH2 0x2F0 PUSH0 CODECOPY PUSH0 DUP2 DUP2 PUSH2 0x29E ADD MSTORE DUP2 DUP2 PUSH2 0x2DB ADD MSTORE PUSH2 0x5A6 ADD MSTORE PUSH0 DUP2 DUP2 PUSH2 0x189 ADD MSTORE DUP2 DUP2 PUSH2 0x200 ADD MSTORE DUP2 DUP2 PUSH2 0x3EA ADD MSTORE PUSH2 0x4C7 ADD MSTORE PUSH2 0xF2D PUSH0 RETURN INVALID PUSH1 0x80 PUSH1 0x40 MSTORE CALLVALUE DUP1 ISZERO PUSH2 0xF JUMPI PUSH0 DUP1 REVERT JUMPDEST POP PUSH1 0x4 CALLDATASIZE LT PUSH2 0x91 JUMPI PUSH0 CALLDATALOAD PUSH1 0xE0 SHR DUP1 PUSH4 0x6A61E5FC GT PUSH2 0x64 JUMPI DUP1 PUSH4 0x6A61E5FC EQ PUSH2 0x109 JUMPI DUP1 PUSH4 0x715018A6 EQ PUSH2 0x125 JUMPI DUP1 PUSH4 0x7FF9B596 EQ PUSH2 0x12F JUMPI DUP1 PUSH4 0x8DA5CB5B EQ PUSH2 0x14D JUMPI DUP1 PUSH4 0xF2FDE38B EQ PUSH2 0x16B JUMPI PUSH2 0x91 JUMP JUMPDEST DUP1 PUSH4 0x11EAC855 EQ PUSH2 0x95 JUMPI DUP1 PUSH4 0x3610724E EQ PUSH2 0xB3 JUMPI DUP1 PUSH4 0x44471FD9 EQ PUSH2 0xCF JUMPI DUP1 PUSH4 0x502D7F76 EQ PUSH2 0xEB JUMPI JUMPDEST PUSH0 DUP1 REVERT JUMPDEST PUSH2 0x9D PUSH2 0x187 JUMP JUMPDEST PUSH1 0x40 MLOAD PUSH2 0xAA SWAP2 SWAP1 PUSH2 0x867 JUMP JUMPDEST PUSH1 0x40 MLOAD DUP1 SWAP2 SUB SWAP1 RETURN JUMPDEST PUSH2 0xCD PUSH1 0x4 DUP1 CALLDATASIZE SUB DUP2 ADD SWAP1 PUSH2 0xC8 SWAP2 SWAP1 PUSH2 0x8B7 JUMP JUMPDEST PUSH2 0x1AB JUMP JUMPDEST STOP JUMPDEST PUSH2 0xE9 PUSH1 0x4 DUP1 CALLDATASIZE SUB DUP2 ADD SWAP1 PUSH2 0xE4 SWAP2 SWAP1 PUSH2 0x91D JUMP JUMPDEST PUSH2 0x3DF JUMP JUMPDEST STOP JUMPDEST PUSH2 0xF3 PUSH2 0x5A4 JUMP JUMPDEST PUSH1 0x40 MLOAD PUSH2 0x100 SWAP2 SWAP1 PUSH2 0x97B JUMP JUMPDEST PUSH1 0x40 MLOAD DUP1 SWAP2 SUB SWAP1 RETURN JUMPDEST PUSH2 0x123 PUSH1 0x4 DUP1 CALLDATASIZE SUB DUP2 ADD SWAP1 PUSH2 0x11E SWAP2 SWAP1 PUSH2 0x8B7 JUMP JUMPDEST PUSH2 0x5C8 JUMP JUMPDEST STOP JUMPDEST PUSH2 0x12D PUSH2 0x5DA JUMP JUMPDEST STOP JUMPDEST PUSH2 0x137 PUSH2 0x5ED JUMP JUMPDEST PUSH1 0x40 MLOAD PUSH2 0x144 SWAP2 SWAP1 PUSH2 0x9A3 JUMP JUMPDEST PUSH1 0x40 MLOAD DUP1 SWAP2 SUB SWAP1 RETURN JUMPDEST PUSH2 0x155 PUSH2 0x5F3 JUMP JUMPDEST PUSH1 0x40 MLOAD PUSH2 0x162 SWAP2 SWAP1 PUSH2 0x9CB JUMP JUMPDEST PUSH1 0x40 MLOAD DUP1 SWAP2 SUB SWAP1 RETURN JUMPDEST PUSH2 0x185 PUSH1 0x4 DUP1 CALLDATASIZE SUB DUP2 ADD SWAP1 PUSH2 0x180 SWAP2 SWAP1 PUSH2 0x9E4 JUMP JUMPDEST PUSH2 0x61A JUMP JUMPDEST STOP JUMPDEST PUSH32 0x0 DUP2 JUMP JUMPDEST PUSH0 DUP2 GT PUSH2 0x1ED JUMPI PUSH1 0x40 MLOAD PUSH32 0x8C379A000000000000000000000000000000000000000000000000000000000 DUP2 MSTORE PUSH1 0x4 ADD PUSH2 0x1E4 SWAP1 PUSH2 0xA69 JUMP JUMPDEST PUSH1 0x40 MLOAD DUP1 SWAP2 SUB SWAP1 REVERT JUMPDEST PUSH0 PUSH1 0x1 SLOAD DUP3 PUSH2 0x1FC SWAP2 SWAP1 PUSH2 0xAE1 JUMP JUMPDEST SWAP1 POP PUSH32 0x0 PUSH20 0xFFFFFFFFFFFFFFFFFFFFFFFFFFFFFFFFFFFFFFFF AND PUSH4 0x23B872DD CALLER ADDRESS DUP6 PUSH1 0x40 MLOAD DUP5 PUSH4 0xFFFFFFFF AND PUSH1 0xE0 SHL DUP2 MSTORE PUSH1 0x4 ADD PUSH2 0x25B SWAP4 SWAP3 SWAP2 SWAP1 PUSH2 0xB11 JUMP JUMPDEST PUSH1 0x20 PUSH1 0x40 MLOAD DUP1 DUP4 SUB DUP2 PUSH0 DUP8 GAS CALL ISZERO DUP1 ISZERO PUSH2 0x277 JUMPI RETURNDATASIZE PUSH0 DUP1 RETURNDATACOPY RETURNDATASIZE PUSH0 REVERT JUMPDEST POP POP POP POP PUSH1 0x40 MLOAD RETURNDATASIZE PUSH1 0x1F NOT PUSH1 0x1F DUP3 ADD AND DUP3 ADD DUP1 PUSH1 0x40 MSTORE POP DUP2 ADD SWAP1 PUSH2 0x29B SWAP2 SWAP1 PUSH2 0xB7B JUMP JUMPDEST POP PUSH32 0x0 PUSH20 0xFFFFFFFFFFFFFFFFFFFFFFFFFFFFFFFFFFFFFFFF AND PUSH4 0xA9059CBB CALLER PUSH32 0x0 PUSH20 0xFFFFFFFFFFFFFFFFFFFFFFFFFFFFFFFFFFFFFFFF AND PUSH4 0x313CE567 PUSH1 0x40 MLOAD DUP2 PUSH4 0xFFFFFFFF AND PUSH1 0xE0 SHL DUP2 MSTORE PUSH1 0x4 ADD PUSH1 0x20 PUSH1 0x40 MLOAD DUP1 DUP4 SUB DUP2 DUP7 GAS STATICCALL ISZERO DUP1 ISZERO PUSH2 0x342 JUMPI RETURNDATASIZE PUSH0 DUP1 RETURNDATACOPY RETURNDATASIZE PUSH0 REVERT JUMPDEST POP POP POP POP PUSH1 0x40 MLOAD RETURNDATASIZE PUSH1 0x1F NOT PUSH1 0x1F DUP3 ADD AND DUP3 ADD DUP1 PUSH1 0x40 MSTORE POP DUP2 ADD SWAP1 PUSH2 0x366 SWAP2 SWAP1 PUSH2 0xBDC JUMP JUMPDEST PUSH1 0xA PUSH2 0x372 SWAP2 SWAP1 PUSH2 0xD36 JUMP JUMPDEST DUP5 PUSH2 0x37D SWAP2 SWAP1 PUSH2 0xD80 JUMP JUMPDEST PUSH1 0x40 MLOAD DUP4 PUSH4 0xFFFFFFFF AND PUSH1 0xE0 SHL DUP2 MSTORE PUSH1 0x4 ADD PUSH2 0x39A SWAP3 SWAP2 SWAP1 PUSH2 0xDC1 JUMP JUMPDEST PUSH1 0x20 PUSH1 0x40 MLOAD DUP1 DUP4 SUB DUP2 PUSH0 DUP8 GAS CALL ISZERO DUP1 ISZERO PUSH2 0x3B6 JUMPI RETURNDATASIZE PUSH0 DUP1 RETURNDATACOPY RETURNDATASIZE PUSH0 REVERT JUMPDEST POP POP POP POP PUSH1 0x40 MLOAD RETURNDATASIZE PUSH1 0x1F NOT PUSH1 0x1F DUP3 ADD AND DUP3 ADD DUP1 PUSH1 0x40 MSTORE POP DUP2 ADD SWAP1 PUSH2 0x3DA SWAP2 SWAP1 PUSH2 0xB7B JUMP JUMPDEST POP POP POP JUMP JUMPDEST PUSH2 0x3E7 PUSH2 0x69E JUMP JUMPDEST PUSH0 PUSH32 0x0 PUSH20 0xFFFFFFFFFFFFFFFFFFFFFFFFFFFFFFFFFFFFFFFF AND PUSH4 0x70A08231 ADDRESS PUSH1 0x40 MLOAD DUP3 PUSH4 0xFFFFFFFF AND PUSH1 0xE0 SHL DUP2 MSTORE PUSH1 0x4 ADD PUSH2 0x441 SWAP2 SWAP1 PUSH2 0x9CB JUMP JUMPDEST PUSH1 0x20 PUSH1 0x40 MLOAD DUP1 DUP4 SUB DUP2 DUP7 GAS STATICCALL ISZERO DUP1 ISZERO PUSH2 0x45C JUMPI RETURNDATASIZE PUSH0 DUP1 RETURNDATACOPY RETURNDATASIZE PUSH0 REVERT JUMPDEST POP POP POP POP PUSH1 0x40 MLOAD RETURNDATASIZE PUSH1 0x1F NOT PUSH1 0x1F DUP3 ADD AND DUP3 ADD DUP1 PUSH1 0x40 MSTORE POP DUP2 ADD SWAP1 PUSH2 0x480 SWAP2 SWAP1 PUSH2 0xDFC JUMP JUMPDEST SWAP1 POP DUP2 DUP2 LT ISZERO PUSH2 0x4C5 JUMPI PUSH1 0x40 MLOAD PUSH32 0x8C379A000000000000000000000000000000000000000000000000000000000 DUP2 MSTORE PUSH1 0x4 ADD PUSH2 0x4BC SWAP1 PUSH2 0xE71 JUMP JUMPDEST PUSH1 0x40 MLOAD DUP1 SWAP2 SUB SWAP1 REVERT JUMPDEST PUSH32 0x0 PUSH20 0xFFFFFFFFFFFFFFFFFFFFFFFFFFFFFFFFFFFFFFFF AND PUSH4 0xA9059CBB DUP5 DUP5 PUSH1 0x40 MLOAD DUP4 PUSH4 0xFFFFFFFF AND PUSH1 0xE0 SHL DUP2 MSTORE PUSH1 0x4 ADD PUSH2 0x520 SWAP3 SWAP2 SWAP1 PUSH2 0xDC1 JUMP JUMPDEST PUSH1 0x20 PUSH1 0x40 MLOAD DUP1 DUP4 SUB DUP2 PUSH0 DUP8 GAS CALL ISZERO DUP1 ISZERO PUSH2 0x53C JUMPI RETURNDATASIZE PUSH0 DUP1 RETURNDATACOPY RETURNDATASIZE PUSH0 REVERT JUMPDEST POP POP POP POP PUSH1 0x40 MLOAD RETURNDATASIZE PUSH1 0x1F NOT PUSH1 0x1F DUP3 ADD AND DUP3 ADD DUP1 PUSH1 0x40 MSTORE POP DUP2 ADD SWAP1 PUSH2 0x560 SWAP2 SWAP1 PUSH2 0xB7B JUMP JUMPDEST PUSH2 0x59F JUMPI PUSH1 0x40 MLOAD PUSH32 0x8C379A000000000000000000000000000000000000000000000000000000000 DUP2 MSTORE PUSH1 0x4 ADD PUSH2 0x596 SWAP1 PUSH2 0xED9 JUMP JUMPDEST PUSH1 0x40 MLOAD DUP1 SWAP2 SUB SWAP1 REVERT JUMPDEST POP POP POP JUMP JUMPDEST PUSH32 0x0 DUP2 JUMP JUMPDEST PUSH2 0x5D0 PUSH2 0x69E JUMP JUMPDEST DUP1 PUSH1 0x1 DUP2 SWAP1 SSTORE POP POP JUMP JUMPDEST PUSH2 0x5E2 PUSH2 0x69E JUMP JUMPDEST PUSH2 0x5EB PUSH0 PUSH2 0x725 JUMP JUMPDEST JUMP JUMPDEST PUSH1 0x1 SLOAD DUP2 JUMP JUMPDEST PUSH0 DUP1 PUSH0 SWAP1 SLOAD SWAP1 PUSH2 0x100 EXP SWAP1 DIV PUSH20 0xFFFFFFFFFFFFFFFFFFFFFFFFFFFFFFFFFFFFFFFF AND SWAP1 POP SWAP1 JUMP JUMPDEST PUSH2 0x622 PUSH2 0x69E JUMP JUMPDEST PUSH0 PUSH20 0xFFFFFFFFFFFFFFFFFFFFFFFFFFFFFFFFFFFFFFFF AND DUP2 PUSH20 0xFFFFFFFFFFFFFFFFFFFFFFFFFFFFFFFFFFFFFFFF AND SUB PUSH2 0x692 JUMPI PUSH0 PUSH1 0x40 MLOAD PUSH32 0x1E4FBDF700000000000000000000000000000000000000000000000000000000 DUP2 MSTORE PUSH1 0x4 ADD PUSH2 0x689 SWAP2 SWAP1 PUSH2 0x9CB JUMP JUMPDEST PUSH1 0x40 MLOAD DUP1 SWAP2 SUB SWAP1 REVERT JUMPDEST PUSH2 0x69B DUP2 PUSH2 0x725 JUMP JUMPDEST POP JUMP JUMPDEST PUSH2 0x6A6 PUSH2 0x7E6 JUMP JUMPDEST PUSH20 0xFFFFFFFFFFFFFFFFFFFFFFFFFFFFFFFFFFFFFFFF AND PUSH2 0x6C4 PUSH2 0x5F3 JUMP JUMPDEST PUSH20 0xFFFFFFFFFFFFFFFFFFFFFFFFFFFFFFFFFFFFFFFF AND EQ PUSH2 0x723 JUMPI PUSH2 0x6E7 PUSH2 0x7E6 JUMP JUMPDEST PUSH1 0x40 MLOAD PUSH32 0x118CDAA700000000000000000000000000000000000000000000000000000000 DUP2 MSTORE PUSH1 0x4 ADD PUSH2 0x71A SWAP2 SWAP1 PUSH2 0x9CB JUMP JUMPDEST PUSH1 0x40 MLOAD DUP1 SWAP2 SUB SWAP1 REVERT JUMPDEST JUMP JUMPDEST PUSH0 DUP1 PUSH0 SWAP1 SLOAD SWAP1 PUSH2 0x100 EXP SWAP1 DIV PUSH20 0xFFFFFFFFFFFFFFFFFFFFFFFFFFFFFFFFFFFFFFFF AND SWAP1 POP DUP2 PUSH0 DUP1 PUSH2 0x100 EXP DUP2 SLOAD DUP2 PUSH20 0xFFFFFFFFFFFFFFFFFFFFFFFFFFFFFFFFFFFFFFFF MUL NOT AND SWAP1 DUP4 PUSH20 0xFFFFFFFFFFFFFFFFFFFFFFFFFFFFFFFFFFFFFFFF AND MUL OR SWAP1 SSTORE POP DUP2 PUSH20 0xFFFFFFFFFFFFFFFFFFFFFFFFFFFFFFFFFFFFFFFF AND DUP2 PUSH20 0xFFFFFFFFFFFFFFFFFFFFFFFFFFFFFFFFFFFFFFFF AND PUSH32 0x8BE0079C531659141344CD1FD0A4F28419497F9722A3DAAFE3B4186F6B6457E0 PUSH1 0x40 MLOAD PUSH1 0x40 MLOAD DUP1 SWAP2 SUB SWAP1 LOG3 POP POP JUMP JUMPDEST PUSH0 CALLER SWAP1 POP SWAP1 JUMP JUMPDEST PUSH0 PUSH20 0xFFFFFFFFFFFFFFFFFFFFFFFFFFFFFFFFFFFFFFFF DUP3 AND SWAP1 POP SWAP2 SWAP1 POP JUMP JUMPDEST PUSH0 DUP2 SWAP1 POP SWAP2 SWAP1 POP JUMP JUMPDEST PUSH0 PUSH2 0x82F PUSH2 0x82A PUSH2 0x825 DUP5 PUSH2 0x7ED JUMP JUMPDEST PUSH2 0x80C JUMP JUMPDEST PUSH2 0x7ED JUMP JUMPDEST SWAP1 POP SWAP2 SWAP1 POP JUMP JUMPDEST PUSH0 PUSH2 0x840 DUP3 PUSH2 0x815 JUMP JUMPDEST SWAP1 POP SWAP2 SWAP1 POP JUMP JUMPDEST PUSH0 PUSH2 0x851 DUP3 PUSH2 0x836 JUMP JUMPDEST SWAP1 POP SWAP2 SWAP1 POP JUMP JUMPDEST PUSH2 0x861 DUP2 PUSH2 0x847 JUMP JUMPDEST DUP3 MSTORE POP POP JUMP JUMPDEST PUSH0 PUSH1 0x20 DUP3 ADD SWAP1 POP PUSH2 0x87A PUSH0 DUP4 ADD DUP5 PUSH2 0x858 JUMP JUMPDEST SWAP3 SWAP2 POP POP JUMP JUMPDEST PUSH0 DUP1 REVERT JUMPDEST PUSH0 DUP2 SWAP1 POP SWAP2 SWAP1 POP JUMP JUMPDEST PUSH2 0x896 DUP2 PUSH2 0x884 JUMP JUMPDEST DUP2 EQ PUSH2 0x8A0 JUMPI PUSH0 DUP1 REVERT JUMPDEST POP JUMP JUMPDEST PUSH0 DUP2 CALLDATALOAD SWAP1 POP PUSH2 0x8B1 DUP2 PUSH2 0x88D JUMP JUMPDEST SWAP3 SWAP2 POP POP JUMP JUMPDEST PUSH0 PUSH1 0x20 DUP3 DUP5 SUB SLT ISZERO PUSH2 0x8CC JUMPI PUSH2 0x8CB PUSH2 0x880 JUMP JUMPDEST JUMPDEST PUSH0 PUSH2 0x8D9 DUP5 DUP3 DUP6 ADD PUSH2 0x8A3 JUMP JUMPDEST SWAP2 POP POP SWAP3 SWAP2 POP POP JUMP JUMPDEST PUSH0 PUSH2 0x8EC DUP3 PUSH2 0x7ED JUMP JUMPDEST SWAP1 POP SWAP2 SWAP1 POP JUMP JUMPDEST PUSH2 0x8FC DUP2 PUSH2 0x8E2 JUMP JUMPDEST DUP2 EQ PUSH2 0x906 JUMPI PUSH0 DUP1 REVERT JUMPDEST POP JUMP JUMPDEST PUSH0 DUP2 CALLDATALOAD SWAP1 POP PUSH2 0x917 DUP2 PUSH2 0x8F3 JUMP JUMPDEST SWAP3 SWAP2 POP POP JUMP JUMPDEST PUSH0 DUP1 PUSH1 0x40 DUP4 DUP6 SUB SLT ISZERO PUSH2 0x933 JUMPI PUSH2 0x932 PUSH2 0x880 JUMP JUMPDEST JUMPDEST PUSH0 PUSH2 0x940 DUP6 DUP3 DUP7 ADD PUSH2 0x909 JUMP JUMPDEST SWAP3 POP POP PUSH1 0x20 PUSH2 0x951 DUP6 DUP3 DUP7 ADD PUSH2 0x8A3 JUMP JUMPDEST SWAP2 POP POP SWAP3 POP SWAP3 SWAP1 POP JUMP JUMPDEST PUSH0 PUSH2 0x965 DUP3 PUSH2 0x836 JUMP JUMPDEST SWAP1 POP SWAP2 SWAP1 POP JUMP JUMPDEST PUSH2 0x975 DUP2 PUSH2 0x95B JUMP JUMPDEST DUP3 MSTORE POP POP JUMP JUMPDEST PUSH0 PUSH1 0x20 DUP3 ADD SWAP1 POP PUSH2 0x98E PUSH0 DUP4 ADD DUP5 PUSH2 0x96C JUMP JUMPDEST SWAP3 SWAP2 POP POP JUMP JUMPDEST PUSH2 0x99D DUP2 PUSH2 0x884 JUMP JUMPDEST DUP3 MSTORE POP POP JUMP JUMPDEST PUSH0 PUSH1 0x20 DUP3 ADD SWAP1 POP PUSH2 0x9B6 PUSH0 DUP4 ADD DUP5 PUSH2 0x994 JUMP JUMPDEST SWAP3 SWAP2 POP POP JUMP JUMPDEST PUSH2 0x9C5 DUP2 PUSH2 0x8E2 JUMP JUMPDEST DUP3 MSTORE POP POP JUMP JUMPDEST PUSH0 PUSH1 0x20 DUP3 ADD SWAP1 POP PUSH2 0x9DE PUSH0 DUP4 ADD DUP5 PUSH2 0x9BC JUMP JUMPDEST SWAP3 SWAP2 POP POP JUMP JUMPDEST PUSH0 PUSH1 0x20 DUP3 DUP5 SUB SLT ISZERO PUSH2 0x9F9 JUMPI PUSH2 0x9F8 PUSH2 0x880 JUMP JUMPDEST JUMPDEST PUSH0 PUSH2 0xA06 DUP5 DUP3 DUP6 ADD PUSH2 0x909 JUMP JUMPDEST SWAP2 POP POP SWAP3 SWAP2 POP POP JUMP JUMPDEST PUSH0 DUP3 DUP3 MSTORE PUSH1 0x20 DUP3 ADD SWAP1 POP SWAP3 SWAP2 POP POP JUMP JUMPDEST PUSH32 0x5553444320616D6F756E74203000000000000000000000000000000000000000 PUSH0 DUP3 ADD MSTORE POP JUMP JUMPDEST PUSH0 PUSH2 0xA53 PUSH1 0xD DUP4 PUSH2 0xA0F JUMP JUMPDEST SWAP2 POP PUSH2 0xA5E DUP3 PUSH2 0xA1F JUMP JUMPDEST PUSH1 0x20 DUP3 ADD SWAP1 POP SWAP2 SWAP1 POP JUMP JUMPDEST PUSH0 PUSH1 0x20 DUP3 ADD SWAP1 POP DUP2 DUP2 SUB PUSH0 DUP4 ADD MSTORE PUSH2 0xA80 DUP2 PUSH2 0xA47 JUMP JUMPDEST SWAP1 POP SWAP2 SWAP1 POP JUMP JUMPDEST PUSH32 0x4E487B7100000000000000000000000000000000000000000000000000000000 PUSH0 MSTORE PUSH1 0x12 PUSH1 0x4 MSTORE PUSH1 0x24 PUSH0 REVERT JUMPDEST PUSH32 0x4E487B7100000000000000000000000000000000000000000000000000000000 PUSH0 MSTORE PUSH1 0x11 PUSH1 0x4 MSTORE PUSH1 0x24 PUSH0 REVERT JUMPDEST PUSH0 PUSH2 0xAEB DUP3 PUSH2 0x884 JUMP JUMPDEST SWAP2 POP PUSH2 0xAF6 DUP4 PUSH2 0x884 JUMP JUMPDEST SWAP3 POP DUP3 PUSH2 0xB06 JUMPI PUSH2 0xB05 PUSH2 0xA87 JUMP JUMPDEST JUMPDEST DUP3 DUP3 DIV SWAP1 POP SWAP3 SWAP2 POP POP JUMP JUMPDEST PUSH0 PUSH1 0x60 DUP3 ADD SWAP1 POP PUSH2 0xB24 PUSH0 DUP4 ADD DUP7 PUSH2 0x9BC JUMP JUMPDEST PUSH2 0xB31 PUSH1 0x20 DUP4 ADD DUP6 PUSH2 0x9BC JUMP JUMPDEST PUSH2 0xB3E PUSH1 0x40 DUP4 ADD DUP5 PUSH2 0x994 JUMP JUMPDEST SWAP5 SWAP4 POP POP POP POP JUMP JUMPDEST PUSH0 DUP2 ISZERO ISZERO SWAP1 POP SWAP2 SWAP1 POP JUMP JUMPDEST PUSH2 0xB5A DUP2 PUSH2 0xB46 JUMP JUMPDEST DUP2 EQ PUSH2 0xB64 JUMPI PUSH0 DUP1 REVERT JUMPDEST POP JUMP JUMPDEST PUSH0 DUP2 MLOAD SWAP1 POP PUSH2 0xB75 DUP2 PUSH2 0xB51 JUMP JUMPDEST SWAP3 SWAP2 POP POP JUMP JUMPDEST PUSH0 PUSH1 0x20 DUP3 DUP5 SUB SLT ISZERO PUSH2 0xB90 JUMPI PUSH2 0xB8F PUSH2 0x880 JUMP JUMPDEST JUMPDEST PUSH0 PUSH2 0xB9D DUP5 DUP3 DUP6 ADD PUSH2 0xB67 JUMP JUMPDEST SWAP2 POP POP SWAP3 SWAP2 POP POP JUMP JUMPDEST PUSH0 PUSH1 0xFF DUP3 AND SWAP1 POP SWAP2 SWAP1 POP JUMP JUMPDEST PUSH2 0xBBB DUP2 PUSH2 0xBA6 JUMP JUMPDEST DUP2 EQ PUSH2 0xBC5 JUMPI PUSH0 DUP1 REVERT JUMPDEST POP JUMP JUMPDEST PUSH0 DUP2 MLOAD SWAP1 POP PUSH2 0xBD6 DUP2 PUSH2 0xBB2 JUMP JUMPDEST SWAP3 SWAP2 POP POP JUMP JUMPDEST PUSH0 PUSH1 0x20 DUP3 DUP5 SUB SLT ISZERO PUSH2 0xBF1 JUMPI PUSH2 0xBF0 PUSH2 0x880 JUMP JUMPDEST JUMPDEST PUSH0 PUSH2 0xBFE DUP5 DUP3 DUP6 ADD PUSH2 0xBC8 JUMP JUMPDEST SWAP2 POP POP SWAP3 SWAP2 POP POP JUMP JUMPDEST PUSH0 DUP2 PUSH1 0x1 SHR SWAP1 POP SWAP2 SWAP1 POP JUMP JUMPDEST PUSH0 DUP1 DUP3 SWAP2 POP DUP4 SWAP1 POP JUMPDEST PUSH1 0x1 DUP6 GT ISZERO PUSH2 0xC5C JUMPI DUP1 DUP7 DIV DUP2 GT ISZERO PUSH2 0xC38 JUMPI PUSH2 0xC37 PUSH2 0xAB4 JUMP JUMPDEST JUMPDEST PUSH1 0x1 DUP6 AND ISZERO PUSH2 0xC47 JUMPI DUP1 DUP3 MUL SWAP2 POP JUMPDEST DUP1 DUP2 MUL SWAP1 POP PUSH2 0xC55 DUP6 PUSH2 0xC07 JUMP JUMPDEST SWAP5 POP PUSH2 0xC1C JUMP JUMPDEST SWAP5 POP SWAP5 SWAP3 POP POP POP JUMP JUMPDEST PUSH0 DUP3 PUSH2 0xC74 JUMPI PUSH1 0x1 SWAP1 POP PUSH2 0xD2F JUMP JUMPDEST DUP2 PUSH2 0xC81 JUMPI PUSH0 SWAP1 POP PUSH2 0xD2F JUMP JUMPDEST DUP2 PUSH1 0x1 DUP2 EQ PUSH2 0xC97 JUMPI PUSH1 0x2 DUP2 EQ PUSH2 0xCA1 JUMPI PUSH2 0xCD0 JUMP JUMPDEST PUSH1 0x1 SWAP2 POP POP PUSH2 0xD2F JUMP JUMPDEST PUSH1 0xFF DUP5 GT ISZERO PUSH2 0xCB3 JUMPI PUSH2 0xCB2 PUSH2 0xAB4 JUMP JUMPDEST JUMPDEST DUP4 PUSH1 0x2 EXP SWAP2 POP DUP5 DUP3 GT ISZERO PUSH2 0xCCA JUMPI PUSH2 0xCC9 PUSH2 0xAB4 JUMP JUMPDEST JUMPDEST POP PUSH2 0xD2F JUMP JUMPDEST POP PUSH1 0x20 DUP4 LT PUSH2 0x133 DUP4 LT AND PUSH1 0x4E DUP5 LT PUSH1 0xB DUP5 LT AND OR ISZERO PUSH2 0xD05 JUMPI DUP3 DUP3 EXP SWAP1 POP DUP4 DUP2 GT ISZERO PUSH2 0xD00 JUMPI PUSH2 0xCFF PUSH2 0xAB4 JUMP JUMPDEST JUMPDEST PUSH2 0xD2F JUMP JUMPDEST PUSH2 0xD12 DUP5 DUP5 DUP5 PUSH1 0x1 PUSH2 0xC13 JUMP JUMPDEST SWAP3 POP SWAP1 POP DUP2 DUP5 DIV DUP2 GT ISZERO PUSH2 0xD29 JUMPI PUSH2 0xD28 PUSH2 0xAB4 JUMP JUMPDEST JUMPDEST DUP2 DUP2 MUL SWAP1 POP JUMPDEST SWAP4 SWAP3 POP POP POP JUMP JUMPDEST PUSH0 PUSH2 0xD40 DUP3 PUSH2 0x884 JUMP JUMPDEST SWAP2 POP PUSH2 0xD4B DUP4 PUSH2 0xBA6 JUMP JUMPDEST SWAP3 POP PUSH2 0xD78 PUSH32 0xFFFFFFFFFFFFFFFFFFFFFFFFFFFFFFFFFFFFFFFFFFFFFFFFFFFFFFFFFFFFFFFF DUP5 DUP5 PUSH2 0xC65 JUMP JUMPDEST SWAP1 POP SWAP3 SWAP2 POP POP JUMP JUMPDEST PUSH0 PUSH2 0xD8A DUP3 PUSH2 0x884 JUMP JUMPDEST SWAP2 POP PUSH2 0xD95 DUP4 PUSH2 0x884 JUMP JUMPDEST SWAP3 POP DUP3 DUP3 MUL PUSH2 0xDA3 DUP2 PUSH2 0x884 JUMP JUMPDEST SWAP2 POP DUP3 DUP3 DIV DUP5 EQ DUP4 ISZERO OR PUSH2 0xDBA JUMPI PUSH2 0xDB9 PUSH2 0xAB4 JUMP JUMPDEST JUMPDEST POP SWAP3 SWAP2 POP POP JUMP JUMPDEST PUSH0 PUSH1 0x40 DUP3 ADD SWAP1 POP PUSH2 0xDD4 PUSH0 DUP4 ADD DUP6 PUSH2 0x9BC JUMP JUMPDEST PUSH2 0xDE1 PUSH1 0x20 DUP4 ADD DUP5 PUSH2 0x994 JUMP JUMPDEST SWAP4 SWAP3 POP POP POP JUMP JUMPDEST PUSH0 DUP2 MLOAD SWAP1 POP PUSH2 0xDF6 DUP2 PUSH2 0x88D JUMP JUMPDEST SWAP3 SWAP2 POP POP JUMP JUMPDEST PUSH0 PUSH1 0x20 DUP3 DUP5 SUB SLT ISZERO PUSH2 0xE11 JUMPI PUSH2 0xE10 PUSH2 0x880 JUMP JUMPDEST JUMPDEST PUSH0 PUSH2 0xE1E DUP5 DUP3 DUP6 ADD PUSH2 0xDE8 JUMP JUMPDEST SWAP2 POP POP SWAP3 SWAP2 POP POP JUMP JUMPDEST PUSH32 0x496E73756666696369656E742062616C616E6365000000000000000000000000 PUSH0 DUP3 ADD MSTORE POP JUMP JUMPDEST PUSH0 PUSH2 0xE5B PUSH1 0x14 DUP4 PUSH2 0xA0F JUMP JUMPDEST SWAP2 POP PUSH2 0xE66 DUP3 PUSH2 0xE27 JUMP JUMPDEST PUSH1 0x20 DUP3 ADD SWAP1 POP SWAP2 SWAP1 POP JUMP JUMPDEST PUSH0 PUSH1 0x20 DUP3 ADD SWAP1 POP DUP2 DUP2 SUB PUSH0 DUP4 ADD MSTORE PUSH2 0xE88 DUP2 PUSH2 0xE4F JUMP JUMPDEST SWAP1 POP SWAP2 SWAP1 POP JUMP JUMPDEST PUSH32 0x55534443207472616E73666572206661696C6564000000000000000000000000 PUSH0 DUP3 ADD MSTORE POP JUMP JUMPDEST PUSH0 PUSH2 0xEC3 PUSH1 0x14 DUP4 PUSH2 0xA0F JUMP JUMPDEST SWAP2 POP PUSH2 0xECE DUP3 PUSH2 0xE8F JUMP JUMPDEST PUSH1 0x20 DUP3 ADD SWAP1 POP SWAP2 SWAP1 POP JUMP JUMPDEST PUSH0 PUSH1 0x20 DUP3 ADD SWAP1 POP DUP2 DUP2 SUB PUSH0 DUP4 ADD MSTORE PUSH2 0xEF0 DUP2 PUSH2 0xEB7 JUMP JUMPDEST SWAP1 POP SWAP2 SWAP1 POP JUMP INVALID LOG2 PUSH5 0x6970667358 0x22 SLT KECCAK256 0xFB DUP13 0x2B 0xB7 DUP7 0x28 0x23 SWAP11 0xD9 0xB7 SIGNEXTEND 0xC8 GT PUSH8 0x122B2F2C7AB4605D DUP1 GT 0x22 SWAP7 ADDMOD SLT 0xC0 RETURNDATASIZE NOT 0xBD PUSH5 0x736F6C6343 STOP ADDMOD BYTE STOP CALLER "
		},
		"gasEstimates": {
			"creation": {
				"codeDepositCost": "777000",
				"executionCost": "infinite",
				"totalCost": "infinite"
			},
			"external": {
				"buyTokens(uint256)": "infinite",
				"owner()": "2581",
				"renounceOwnership()": "infinite",
				"setTokenPrice(uint256)": "infinite",
				"tokenPrice()": "2469",
				"transferOwnership(address)": "infinite",
				"urkuToken()": "infinite",
				"usdcToken()": "infinite",
				"withdrawUSDC(address,uint256)": "infinite"
			}
		},
		"methodIdentifiers": {
			"buyTokens(uint256)": "3610724e",
			"owner()": "8da5cb5b",
			"renounceOwnership()": "715018a6",
			"setTokenPrice(uint256)": "6a61e5fc",
			"tokenPrice()": "7ff9b596",
			"transferOwnership(address)": "f2fde38b",
			"urkuToken()": "502d7f76",
			"usdcToken()": "11eac855",
			"withdrawUSDC(address,uint256)": "44471fd9"
		}
	},
	"abi": [
		{
			"inputs": [
				{
					"internalType": "address",
					"name": "_urkuTokenAddress",
					"type": "address"
				}
			],
			"stateMutability": "nonpayable",
			"type": "constructor"
		},
		{
			"inputs": [
				{
					"internalType": "address",
					"name": "owner",
					"type": "address"
				}
			],
			"name": "OwnableInvalidOwner",
			"type": "error"
		},
		{
			"inputs": [
				{
					"internalType": "address",
					"name": "account",
					"type": "address"
				}
			],
			"name": "OwnableUnauthorizedAccount",
			"type": "error"
		},
		{
			"anonymous": false,
			"inputs": [
				{
					"indexed": true,
					"internalType": "address",
					"name": "previousOwner",
					"type": "address"
				},
				{
					"indexed": true,
					"internalType": "address",
					"name": "newOwner",
					"type": "address"
				}
			],
			"name": "OwnershipTransferred",
			"type": "event"
		},
		{
			"inputs": [
				{
					"internalType": "uint256",
					"name": "usdcAmount",
					"type": "uint256"
				}
			],
			"name": "buyTokens",
			"outputs": [],
			"stateMutability": "nonpayable",
			"type": "function"
		},
		{
			"inputs": [],
			"name": "owner",
			"outputs": [
				{
					"internalType": "address",
					"name": "",
					"type": "address"
				}
			],
			"stateMutability": "view",
			"type": "function"
		},
		{
			"inputs": [],
			"name": "renounceOwnership",
			"outputs": [],
			"stateMutability": "nonpayable",
			"type": "function"
		},
		{
			"inputs": [
				{
					"internalType": "uint256",
					"name": "newPrice",
					"type": "uint256"
				}
			],
			"name": "setTokenPrice",
			"outputs": [],
			"stateMutability": "nonpayable",
			"type": "function"
		},
		{
			"inputs": [],
			"name": "tokenPrice",
			"outputs": [
				{
					"internalType": "uint256",
					"name": "",
					"type": "uint256"
				}
			],
			"stateMutability": "view",
			"type": "function"
		},
		{
			"inputs": [
				{
					"internalType": "address",
					"name": "newOwner",
					"type": "address"
				}
			],
			"name": "transferOwnership",
			"outputs": [],
			"stateMutability": "nonpayable",
			"type": "function"
		},
		{
			"inputs": [],
			"name": "urkuToken",
			"outputs": [
				{
					"internalType": "contract URKUToken",
					"name": "",
					"type": "address"
				}
			],
			"stateMutability": "view",
			"type": "function"
		},
		{
			"inputs": [],
			"name": "usdcToken",
			"outputs": [
				{
					"internalType": "contract IERC20",
					"name": "",
					"type": "address"
				}
			],
			"stateMutability": "view",
			"type": "function"
		},
		{
			"inputs": [
				{
					"internalType": "address",
					"name": "to",
					"type": "address"
				},
				{
					"internalType": "uint256",
					"name": "amount",
					"type": "uint256"
				}
			],
			"name": "withdrawUSDC",
			"outputs": [],
			"stateMutability": "nonpayable",
			"type": "function"
		}
	]
}